{
  "transactions": [
    {
      "hash": "0xacc8bc23a0d44b37910405d679caa6c142fac9e3315d15420510171096cde179",
      "transactionType": "CREATE",
      "contractName": "VeNftDiscountHook",
      "contractAddress": "0xe0406c1686d262f1415cbacae85a0de21fa6d11c",
      "function": null,
      "arguments": [
        "0x97e09cD0E079CeeECBb799834959e3dC8e4ec31A",
        "0xD0bB5823D31C9544f60611D1A8F5434349d20025"
      ],
      "transaction": {
        "from": "0x699d04f9994f181f3e310f70cf6ac8e8445ace9a",
        "gas": "0xb1506",
        "value": "0x0",
        "input": "0x60e080604052346100f457604081610a42803803809161001f828561010b565b8339810103126100f4578051906001600160a01b03808316918284036100f45760200151928184168094036100f45760805260405163fbfa77cf60e01b815291602090839060049082905afa918215610100575f926100bf575b505060a05260c0526040516108ff9081610143823960805181818161021f0152610348015260a05181818160e801526103f4015260c051818181610282015261038b0152f35b9091506020813d6020116100f8575b816100db6020938361010b565b810103126100f4575190811681036100f4575f80610079565b5f80fd5b3d91506100ce565b6040513d5f823e3d90fd5b601f909101601f19168101906001600160401b0382119082101761012e57604052565b634e487b7160e01b5f52604160045260245ffdfe60806040818152600480361015610014575f80fd5b5f3560e01c928363099cede2146105e5575082631ffe6a581461053c5782634b6a682d146105375782635304d44e146105375782636f6657cb146104e45782637aa43ce0146103ba578263972e19a214610485578263ab6291fe146103bf578263d533c4db146103ba578263d56d229d14610377578263dc4c90d314610334578263e592dc93146101be578263e8246c7f146100d0578263f961d1f41461011b57508163fbfa77cf146100d5575063fe70c9c9146100d0575f80fd5b610726565b34610117575f36600319011261011757517f00000000000000000000000000000000000000000000000000000000000000006001600160a01b03168152602090f35b5f80fd5b9034610117575f366003190112610117578051916101c08301908382106001600160401b038311176101ab57506101a06020935f92845282815260018582015282848201528260608201528260808201528260a0820152600160c08201528260e0820152826101008201528261012082015282610140820152826101608201528261018082015201525160428152f35b604190634e487b7160e01b5f525260245ffd5b903461011757610160366003190112610117576101d961060d565b5060c03660231901126101175760603660e319011261011757610144356001600160401b038111610117576102119036908401610639565b506001600160a01b039190507f0000000000000000000000000000000000000000000000000000000000000000821633036103255760c0610251366107b7565b205f526020915f8352815f20549362ffffff91848387169260248651809481936370a0823160e01b835232908301527f0000000000000000000000000000000000000000000000000000000000000000165afa90811561031b575f916102eb575b509060609562400000926102db575b505f84519563e592dc9360e01b8752860152171690820152f35b627fffff915060011c16866102c1565b9190508482813d8311610314575b6103038183610782565b8101031261011757905160606102b2565b503d6102f9565b84513d5f823e3d90fd5b5163570c108560e11b81529050fd5b5034610117575f36600319011261011757517f00000000000000000000000000000000000000000000000000000000000000006001600160a01b03168152602090f35b5034610117575f36600319011261011757517f00000000000000000000000000000000000000000000000000000000000000006001600160a01b03168152602090f35b6106ca565b90346101175760209160206003193601126101175780356001600160401b038111610117576103f19036908301610639565b917f00000000000000000000000000000000000000000000000000000000000000006001600160a01b0316330361047757509061042d91610848565b918151928391602083528151918260208501525f5b8381106104615750505f83830185015250601f01601f19168101030190f35b8181018301518782018701528694508201610442565b83516362df054560e01b8152fd5b903461011757610120366003190112610117576104a061060d565b5060c0366023190112610117576104b5610623565b50610104356001600160401b038111610117576104d59036908401610639565b505051630a85dc2960e01b8152fd5b903461011757610180366003190112610117576104ff61060d565b5060c03660231901126101175760603660e319011261011757610164356001600160401b038111610117576104d59036908401610639565b610666565b34610117576101403660031901126101175761055661060d565b5060c03660231901126101175761056b610623565b50610104358060020b0361011757610124356001600160401b0381116101175760209161059a91369101610639565b908092918101031261011757359062ffffff82168092036101175760209160c06105c3366107b7565b205f525f8352815f209062ffffff19825416179055516303ffcd4b60e31b8152f35b90346101175760203660031901126101175760209262ffffff91355f525f84525f2054168152f35b600435906001600160a01b038216820361011757565b60e435906001600160a01b038216820361011757565b9181601f84011215610117578235916001600160401b038311610117576020838186019501011161011757565b3461011757610140366003190112610117576004356001600160a01b038116036101175760c036602319011261011757610124356001600160401b038111610117576106b6903690600401610639565b5050604051630a85dc2960e01b8152600490fd5b34610117576101a0366003190112610117576004356001600160a01b038116036101175760c03660231901126101175760803660e319011261011757610184356001600160401b038111610117576106b6903690600401610639565b3461011757610180366003190112610117576004356001600160a01b038116036101175760c03660231901126101175760803660e319011261011757610164356001600160401b038111610117576106b6903690600401610639565b90601f801991011681019081106001600160401b038211176107a357604052565b634e487b7160e01b5f52604160045260245ffd5b60c0906023190112610117576040519060c082018281106001600160401b038211176107a357604052816001600160a01b03602435818116810361011757825260443581811681036101175760208301526064358181168103610117576040830152608435908116810361011757606082015260a43562ffffff8116810361011757608082015260a060c435910152565b5f9182918160405192839283378101838152039082305af1903d156108c1573d916001600160401b0383116107a3576040519261088f601f8201601f191660200185610782565b83523d5f602085013e5b6108bf57508051156108ad57602081519101fd5b6040516314815f4760e31b8152600490fd5b565b60609161089956fea2646970667358221220f3abbbe5264250452a76aed11babd3fb324d5b5612e62be921fc6ae215e40b5764736f6c6343000818003300000000000000000000000097e09cd0e079ceeecbb799834959e3dc8e4ec31a000000000000000000000000d0bb5823d31c9544f60611d1a8f5434349d20025",
        "nonce": "0x45",
        "chainId": "0xaa36a7"
      },
      "additionalContracts": [],
      "isFixedGasLimit": false
    },
    {
      "hash": "0x5d188b08dfa351a38528942f69692d422ae391c5c682af79ea9f53d0826c20f0",
      "transactionType": "CALL",
      "contractName": "CLPoolManager",
      "contractAddress": "0x97e09cd0e079ceeecbb799834959e3dc8e4ec31a",
      "function": "initialize((address,address,address,address,uint24,bytes32),uint160,bytes)",
      "arguments": [
        "(0x1EE8D4e96c6d18E1909D1a3888d6CC4Ae3456aA0, 0x2FF7B00EC6AFdd3Fb68D94b08862f9D12D99a92D, 0xe0406c1686d262f1415cbACaE85a0de21FA6d11c, 0x97e09cD0E079CeeECBb799834959e3dC8e4ec31A, 8388608, 0x00000000000000000000000000000000000000000000000000000000000a0042)",
        "79228162514264337593543950336",
        "0x0000000000000000000000000000000000000000000000000000000000000bb8"
      ],
      "transaction": {
        "from": "0x699d04f9994f181f3e310f70cf6ac8e8445ace9a",
        "to": "0x97e09cd0e079ceeecbb799834959e3dc8e4ec31a",
        "gas": "0x45551",
        "value": "0x0",
        "input": "0x222bb36b0000000000000000000000001ee8d4e96c6d18e1909d1a3888d6cc4ae3456aa00000000000000000000000002ff7b00ec6afdd3fb68d94b08862f9d12d99a92d000000000000000000000000e0406c1686d262f1415cbacae85a0de21fa6d11c00000000000000000000000097e09cd0e079ceeecbb799834959e3dc8e4ec31a000000000000000000000000000000000000000000000000000000000080000000000000000000000000000000000000000000000000000000000000000a00420000000000000000000000000000000000000001000000000000000000000000000000000000000000000000000000000000000000000000000000000000010000000000000000000000000000000000000000000000000000000000000000200000000000000000000000000000000000000000000000000000000000000bb8",
        "nonce": "0x46",
        "chainId": "0xaa36a7"
      },
      "additionalContracts": [],
      "isFixedGasLimit": false
    }
  ],
  "receipts": [
    {
      "status": "0x1",
      "cumulativeGasUsed": "0x59e5c6",
      "logs": [],
      "logsBloom": "0x00000000000000000000000000000000000000000000000000000000000000000000000000000000000000000000000000000000000000000000000000000000000000000000000000000000000000000000000000000000000000000000000000000000000000000000000000000000000000000000000000000000000000000000000000000000000000000000000000000000000000000000000000000000000000000000000000000000000000000000000000000000000000000000000000000000000000000000000000000000000000000000000000000000000000000000000000000000000000000000000000000000000000000000000000000000",
      "type": "0x2",
      "transactionHash": "0xacc8bc23a0d44b37910405d679caa6c142fac9e3315d15420510171096cde179",
      "transactionIndex": "0x1d",
      "blockHash": "0x1a3dab46c87f436dff0cf756b9b583b54584b70d9e2c192eb197858fd3e3d03c",
      "blockNumber": "0x601d48",
      "gasUsed": "0x88654",
      "effectiveGasPrice": "0xba8ac4b2",
      "from": "0x699d04f9994f181f3e310f70cf6ac8e8445ace9a",
      "to": null,
      "contractAddress": "0xe0406c1686d262f1415cbacae85a0de21fa6d11c"
    },
    {
      "status": "0x1",
      "cumulativeGasUsed": "0x6185e8",
      "logs": [
        {
          "address": "0x97e09cd0e079ceeecbb799834959e3dc8e4ec31a",
          "topics": [
            "0xcf60175433806de690ed1498c3ba77edb4652f802538c4a2ae107bf59c31e35d",
            "0xeb5d418d06407c017e330d094c6c17e7036a73670e0eaa6449153fca134c3eeb",
            "0x0000000000000000000000001ee8d4e96c6d18e1909d1a3888d6cc4ae3456aa0",
            "0x0000000000000000000000002ff7b00ec6afdd3fb68d94b08862f9d12d99a92d"
          ],
          "data": "0x000000000000000000000000e0406c1686d262f1415cbacae85a0de21fa6d11c000000000000000000000000000000000000000000000000000000000080000000000000000000000000000000000000000000000000000000000000000a0042",
          "blockHash": "0x1a3dab46c87f436dff0cf756b9b583b54584b70d9e2c192eb197858fd3e3d03c",
          "blockNumber": "0x601d48",
          "transactionHash": "0x5d188b08dfa351a38528942f69692d422ae391c5c682af79ea9f53d0826c20f0",
          "transactionIndex": "0x1f",
          "logIndex": "0x71",
          "removed": false
        }
      ],
      "logsBloom": "0x00040000000200000000000000000000000000000000000000000000000004000000000000000000000004000000000000000000000000000000000000002000000080000000000000000000001000010000000000000400000000000000000000000000000000000000000000000000000000004000000000000000000000000000000000000000000000000000000000000080000000000000000000010000000000000000000000000000000000000002000000000000000000000000000000000000000000000000000000000800000000000000000000000000000000000000000000000000000000000000000000000000000000000080000000000000",
      "type": "0x2",
      "transactionHash": "0x5d188b08dfa351a38528942f69692d422ae391c5c682af79ea9f53d0826c20f0",
      "transactionIndex": "0x1f",
      "blockHash": "0x1a3dab46c87f436dff0cf756b9b583b54584b70d9e2c192eb197858fd3e3d03c",
      "blockNumber": "0x601d48",
      "gasUsed": "0x2f682",
      "effectiveGasPrice": "0xba8ac4b2",
      "from": "0x699d04f9994f181f3e310f70cf6ac8e8445ace9a",
      "to": "0x97e09cd0e079ceeecbb799834959e3dc8e4ec31a",
      "contractAddress": null
    }
  ],
  "libraries": [],
  "pending": [],
  "returns": {},
  "timestamp": 1720822513,
  "chain": 11155111,
  "commit": "1ae990a"
}